{
  "contractName": "CashUSD",
  "abi": [
    {
      "anonymous": false,
      "inputs": [
        {
          "indexed": true,
          "internalType": "address",
          "name": "account",
          "type": "address"
        }
      ],
      "name": "AccountBlocked",
      "type": "event"
    },
    {
      "anonymous": false,
      "inputs": [
        {
          "indexed": true,
          "internalType": "address",
          "name": "account",
          "type": "address"
        }
      ],
      "name": "AccountUnblocked",
      "type": "event"
    },
    {
      "anonymous": false,
      "inputs": [
        {
          "indexed": true,
          "internalType": "address",
          "name": "owner",
          "type": "address"
        },
        {
          "indexed": true,
          "internalType": "address",
          "name": "spender",
          "type": "address"
        },
        {
          "indexed": false,
          "internalType": "uint256",
          "name": "value",
          "type": "uint256"
        }
      ],
      "name": "Approval",
      "type": "event"
    },
    {
      "anonymous": false,
      "inputs": [
        {
          "indexed": false,
          "internalType": "uint8",
          "name": "version",
          "type": "uint8"
        }
      ],
      "name": "Initialized",
      "type": "event"
    },
    {
      "anonymous": false,
      "inputs": [
        {
          "indexed": false,
          "internalType": "address",
          "name": "account",
          "type": "address"
        }
      ],
      "name": "Paused",
      "type": "event"
    },
    {
      "anonymous": false,
      "inputs": [
        {
          "indexed": true,
          "internalType": "address",
          "name": "from",
          "type": "address"
        },
        {
          "indexed": true,
          "internalType": "address",
          "name": "to",
          "type": "address"
        },
        {
          "indexed": false,
          "internalType": "uint256",
          "name": "value",
          "type": "uint256"
        }
      ],
      "name": "Transfer",
      "type": "event"
    },
    {
      "anonymous": false,
      "inputs": [
        {
          "indexed": false,
          "internalType": "address",
          "name": "account",
          "type": "address"
        }
      ],
      "name": "Unpaused",
      "type": "event"
    },
    {
      "inputs": [
        {
          "internalType": "address",
          "name": "owner",
          "type": "address"
        },
        {
          "internalType": "address",
          "name": "spender",
          "type": "address"
        }
      ],
      "name": "allowance",
      "outputs": [
        {
          "internalType": "uint256",
          "name": "",
          "type": "uint256"
        }
      ],
      "stateMutability": "view",
      "type": "function",
      "constant": true
    },
    {
      "inputs": [
        {
          "internalType": "address",
          "name": "account",
          "type": "address"
        }
      ],
      "name": "balanceOf",
      "outputs": [
        {
          "internalType": "uint256",
          "name": "",
          "type": "uint256"
        }
      ],
      "stateMutability": "view",
      "type": "function",
      "constant": true
    },
    {
      "inputs": [],
      "name": "decimals",
      "outputs": [
        {
          "internalType": "uint8",
          "name": "",
          "type": "uint8"
        }
      ],
      "stateMutability": "view",
      "type": "function",
      "constant": true
    },
    {
      "inputs": [],
      "name": "name",
      "outputs": [
        {
          "internalType": "string",
          "name": "",
          "type": "string"
        }
      ],
      "stateMutability": "view",
      "type": "function",
      "constant": true
    },
    {
      "inputs": [],
      "name": "paused",
      "outputs": [
        {
          "internalType": "bool",
          "name": "",
          "type": "bool"
        }
      ],
      "stateMutability": "view",
      "type": "function",
      "constant": true
    },
    {
      "inputs": [],
      "name": "symbol",
      "outputs": [
        {
          "internalType": "string",
          "name": "",
          "type": "string"
        }
      ],
      "stateMutability": "view",
      "type": "function",
      "constant": true
    },
    {
      "inputs": [],
      "name": "totalSupply",
      "outputs": [
        {
          "internalType": "uint256",
          "name": "",
          "type": "uint256"
        }
      ],
      "stateMutability": "view",
      "type": "function",
      "constant": true
    },
    {
      "inputs": [
        {
          "internalType": "string",
          "name": "name_",
          "type": "string"
        },
        {
          "internalType": "string",
          "name": "symbol_",
          "type": "string"
        }
      ],
      "name": "initialize",
      "outputs": [],
      "stateMutability": "nonpayable",
      "type": "function"
    },
    {
      "inputs": [
        {
          "internalType": "address",
          "name": "recipient",
          "type": "address"
        },
        {
          "internalType": "uint256",
          "name": "amount",
          "type": "uint256"
        }
      ],
      "name": "transfer",
      "outputs": [
        {
          "internalType": "bool",
          "name": "",
          "type": "bool"
        }
      ],
      "stateMutability": "nonpayable",
      "type": "function"
    },
    {
      "inputs": [
        {
          "internalType": "address",
          "name": "sender",
          "type": "address"
        },
        {
          "internalType": "address",
          "name": "recipient",
          "type": "address"
        },
        {
          "internalType": "uint256",
          "name": "amount",
          "type": "uint256"
        }
      ],
      "name": "transferFrom",
      "outputs": [
        {
          "internalType": "bool",
          "name": "",
          "type": "bool"
        }
      ],
      "stateMutability": "nonpayable",
      "type": "function"
    },
    {
      "inputs": [
        {
          "internalType": "address",
          "name": "spender",
          "type": "address"
        },
        {
          "internalType": "uint256",
          "name": "amount",
          "type": "uint256"
        }
      ],
      "name": "approve",
      "outputs": [
        {
          "internalType": "bool",
          "name": "",
          "type": "bool"
        }
      ],
      "stateMutability": "nonpayable",
      "type": "function"
    },
    {
      "inputs": [
        {
          "internalType": "address",
          "name": "spender",
          "type": "address"
        },
        {
          "internalType": "uint256",
          "name": "addedValue",
          "type": "uint256"
        }
      ],
      "name": "increaseAllowance",
      "outputs": [
        {
          "internalType": "bool",
          "name": "",
          "type": "bool"
        }
      ],
      "stateMutability": "nonpayable",
      "type": "function"
    },
    {
      "inputs": [
        {
          "internalType": "address",
          "name": "spender",
          "type": "address"
        },
        {
          "internalType": "uint256",
          "name": "subtractedValue",
          "type": "uint256"
        }
      ],
      "name": "decreaseAllowance",
      "outputs": [
        {
          "internalType": "bool",
          "name": "",
          "type": "bool"
        }
      ],
      "stateMutability": "nonpayable",
      "type": "function"
    },
    {
      "inputs": [
        {
          "internalType": "address",
          "name": "account",
          "type": "address"
        }
      ],
      "name": "blockAccount",
      "outputs": [],
      "stateMutability": "nonpayable",
      "type": "function"
    },
    {
      "inputs": [
        {
          "internalType": "address",
          "name": "account",
          "type": "address"
        }
      ],
      "name": "unblockAccount",
      "outputs": [],
      "stateMutability": "nonpayable",
      "type": "function"
    }
  ],
  "bytecode": "0x608060405234801561001057600080fd5b50611f87806100206000396000f3fe608060405234801561001057600080fd5b50600436106100f55760003560e01c80634d78fdc61161009757806395d89b411161006657806395d89b41146101fe578063a457c2d714610206578063a9059cbb14610219578063dd62ed3e1461022c57600080fd5b80634d78fdc6146101975780635c975abb146101aa57806370a08231146101b55780637c0a893d146101eb57600080fd5b806323b872dd116100d357806323b872dd1461014d578063313ce56714610160578063395093511461016f5780634cd88b761461018257600080fd5b806306fdde03146100fa578063095ea7b31461011857806318160ddd1461013b575b600080fd5b610102610272565b60405161010f9190611c30565b60405180910390f35b61012b610126366004611ccc565b610304565b604051901515815260200161010f565b6035545b60405190815260200161010f565b61012b61015b366004611cf6565b610441565b6040516012815260200161010f565b61012b61017d366004611ccc565b610591565b610195610190366004611e0c565b6106b7565b005b6101956101a5366004611e70565b6108f7565b60655460ff1661012b565b61013f6101c3366004611e70565b73ffffffffffffffffffffffffffffffffffffffff1660009081526033602052604090205490565b6101956101f9366004611e70565b610af8565b610102610cfd565b61012b610214366004611ccc565b610d0c565b61012b610227366004611ccc565b610e32565b61013f61023a366004611e8b565b73ffffffffffffffffffffffffffffffffffffffff918216600090815260346020908152604080832093909416825291909152205490565b60606036805461028190611ebe565b80601f01602080910402602001604051908101604052809291908181526020018280546102ad90611ebe565b80156102fa5780601f106102cf576101008083540402835291602001916102fa565b820191906000526020600020905b8154815290600101906020018083116102dd57829003601f168201915b5050505050905090565b600061030e610f58565b610316610fc7565b33600090815260cd602052604090205460ff1615610395576040517f08c379a000000000000000000000000000000000000000000000000000000000815260206004820152601960248201527f53656e646572206163636f756e7420697320626c6f636b65640000000000000060448201526064015b60405180910390fd5b73ffffffffffffffffffffffffffffffffffffffff8316600090815260cd602052604090205460ff1615610425576040517f08c379a000000000000000000000000000000000000000000000000000000000815260206004820152601a60248201527f5370656e646572206163636f756e7420697320626c6f636b6564000000000000604482015260640161038c565b61042f838361103b565b905061043b6001609755565b92915050565b600061044b610f58565b610453610fc7565b73ffffffffffffffffffffffffffffffffffffffff8416600090815260cd602052604090205460ff16156104e3576040517f08c379a000000000000000000000000000000000000000000000000000000000815260206004820152601960248201527f53656e646572206163636f756e7420697320626c6f636b656400000000000000604482015260640161038c565b73ffffffffffffffffffffffffffffffffffffffff8316600090815260cd602052604090205460ff1615610573576040517f08c379a000000000000000000000000000000000000000000000000000000000815260206004820152601c60248201527f526563697069656e74206163636f756e7420697320626c6f636b656400000000604482015260640161038c565b61057e84848461105a565b905061058a6001609755565b9392505050565b600061059b610f58565b6105a3610fc7565b33600090815260cd602052604090205460ff161561061d576040517f08c379a000000000000000000000000000000000000000000000000000000000815260206004820152601960248201527f53656e646572206163636f756e7420697320626c6f636b656400000000000000604482015260640161038c565b73ffffffffffffffffffffffffffffffffffffffff8316600090815260cd602052604090205460ff16156106ad576040517f08c379a000000000000000000000000000000000000000000000000000000000815260206004820152601a60248201527f5370656e646572206163636f756e7420697320626c6f636b6564000000000000604482015260640161038c565b61042f838361107e565b600054610100900460ff16158080156106d75750600054600160ff909116105b806106f15750303b1580156106f1575060005460ff166001145b61077d576040517f08c379a000000000000000000000000000000000000000000000000000000000815260206004820152602e60248201527f496e697469616c697a61626c653a20636f6e747261637420697320616c72656160448201527f647920696e697469616c697a6564000000000000000000000000000000000000606482015260840161038c565b600080547fffffffffffffffffffffffffffffffffffffffffffffffffffffffffffffff0016600117905580156107db57600080547fffffffffffffffffffffffffffffffffffffffffffffffffffffffffffff00ff166101001790555b6107e583836110ca565b6107ed61116f565b6107f561120e565b82516108089060c9906020860190611b97565b50815161081c9060ca906020850190611b97565b5060cb80547fffffffffffffffffffffffffffffffffffffffffffffffffffffffffffffff001660121790556b204fce5e3e2502611000000060cc8190556108659033906112ad565b60ce80547fffffffffffffffffffffffff0000000000000000000000000000000000000000163317905580156108f257600080547fffffffffffffffffffffffffffffffffffffffffffffffffffffffffffff00ff169055604051600181527f7f26b83ff96e1f2b6a682f133852f6798a09c465da95921460cefb38474024989060200160405180910390a15b505050565b60ce5473ffffffffffffffffffffffffffffffffffffffff163314610978576040517f08c379a000000000000000000000000000000000000000000000000000000000815260206004820152601760248201527f43616c6c6572206973206e6f7420746865206f776e6572000000000000000000604482015260640161038c565b73ffffffffffffffffffffffffffffffffffffffff81166109f5576040517f08c379a000000000000000000000000000000000000000000000000000000000815260206004820152600f60248201527f496e76616c696420616464726573730000000000000000000000000000000000604482015260640161038c565b73ffffffffffffffffffffffffffffffffffffffff8116600090815260cd602052604090205460ff16610a84576040517f08c379a000000000000000000000000000000000000000000000000000000000815260206004820152601660248201527f4163636f756e74206973206e6f7420626c6f636b656400000000000000000000604482015260640161038c565b73ffffffffffffffffffffffffffffffffffffffff8116600081815260cd602052604080822080547fffffffffffffffffffffffffffffffffffffffffffffffffffffffffffffff00169055517fa240927645d1251d97459a96c490f3efd3af585e7b0da4814c92aad8ef6ebbf69190a250565b60ce5473ffffffffffffffffffffffffffffffffffffffff163314610b79576040517f08c379a000000000000000000000000000000000000000000000000000000000815260206004820152601760248201527f43616c6c6572206973206e6f7420746865206f776e6572000000000000000000604482015260640161038c565b73ffffffffffffffffffffffffffffffffffffffff8116610bf6576040517f08c379a000000000000000000000000000000000000000000000000000000000815260206004820152600f60248201527f496e76616c696420616464726573730000000000000000000000000000000000604482015260640161038c565b73ffffffffffffffffffffffffffffffffffffffff8116600090815260cd602052604090205460ff1615610c86576040517f08c379a000000000000000000000000000000000000000000000000000000000815260206004820152601a60248201527f4163636f756e7420697320616c726561647920626c6f636b6564000000000000604482015260640161038c565b73ffffffffffffffffffffffffffffffffffffffff8116600081815260cd602052604080822080547fffffffffffffffffffffffffffffffffffffffffffffffffffffffffffffff00166001179055517f28e9b38569d728986e5868b0e113d9a49ee4c47dfc6db29a673e25b3515a56a89190a250565b60606037805461028190611ebe565b6000610d16610f58565b610d1e610fc7565b33600090815260cd602052604090205460ff1615610d98576040517f08c379a000000000000000000000000000000000000000000000000000000000815260206004820152601960248201527f53656e646572206163636f756e7420697320626c6f636b656400000000000000604482015260640161038c565b73ffffffffffffffffffffffffffffffffffffffff8316600090815260cd602052604090205460ff1615610e28576040517f08c379a000000000000000000000000000000000000000000000000000000000815260206004820152601a60248201527f5370656e646572206163636f756e7420697320626c6f636b6564000000000000604482015260640161038c565b61042f83836113a2565b6000610e3c610f58565b610e44610fc7565b33600090815260cd602052604090205460ff1615610ebe576040517f08c379a000000000000000000000000000000000000000000000000000000000815260206004820152601960248201527f53656e646572206163636f756e7420697320626c6f636b656400000000000000604482015260640161038c565b73ffffffffffffffffffffffffffffffffffffffff8316600090815260cd602052604090205460ff1615610f4e576040517f08c379a000000000000000000000000000000000000000000000000000000000815260206004820152601c60248201527f526563697069656e74206163636f756e7420697320626c6f636b656400000000604482015260640161038c565b61042f8383611473565b60655460ff1615610fc5576040517f08c379a000000000000000000000000000000000000000000000000000000000815260206004820152601060248201527f5061757361626c653a2070617573656400000000000000000000000000000000604482015260640161038c565b565b60026097541415611034576040517f08c379a000000000000000000000000000000000000000000000000000000000815260206004820152601f60248201527f5265656e7472616e637947756172643a207265656e7472616e742063616c6c00604482015260640161038c565b6002609755565b600033611049818585611481565b5060019392505050565b6001609755565b600033611068858285611634565b61107385858561170b565b506001949350505050565b33600081815260346020908152604080832073ffffffffffffffffffffffffffffffffffffffff8716845290915281205490919061104990829086906110c5908790611f12565b611481565b600054610100900460ff16611161576040517f08c379a000000000000000000000000000000000000000000000000000000000815260206004820152602b60248201527f496e697469616c697a61626c653a20636f6e7472616374206973206e6f74206960448201527f6e697469616c697a696e67000000000000000000000000000000000000000000606482015260840161038c565b61116b8282611981565b5050565b600054610100900460ff16611206576040517f08c379a000000000000000000000000000000000000000000000000000000000815260206004820152602b60248201527f496e697469616c697a61626c653a20636f6e7472616374206973206e6f74206960448201527f6e697469616c697a696e67000000000000000000000000000000000000000000606482015260840161038c565b610fc5611a3f565b600054610100900460ff166112a5576040517f08c379a000000000000000000000000000000000000000000000000000000000815260206004820152602b60248201527f496e697469616c697a61626c653a20636f6e7472616374206973206e6f74206960448201527f6e697469616c697a696e67000000000000000000000000000000000000000000606482015260840161038c565b610fc5611b00565b73ffffffffffffffffffffffffffffffffffffffff821661132a576040517f08c379a000000000000000000000000000000000000000000000000000000000815260206004820152601f60248201527f45524332303a206d696e7420746f20746865207a65726f206164647265737300604482015260640161038c565b806035600082825461133c9190611f12565b909155505073ffffffffffffffffffffffffffffffffffffffff82166000818152603360209081526040808320805486019055518481527fddf252ad1be2c89b69c2b068fc378daa952ba7f163c4a11628f55a4df523b3ef910160405180910390a35050565b33600081815260346020908152604080832073ffffffffffffffffffffffffffffffffffffffff8716845290915281205490919083811015611466576040517f08c379a000000000000000000000000000000000000000000000000000000000815260206004820152602560248201527f45524332303a2064656372656173656420616c6c6f77616e63652062656c6f7760448201527f207a65726f000000000000000000000000000000000000000000000000000000606482015260840161038c565b6110738286868403611481565b60003361104981858561170b565b73ffffffffffffffffffffffffffffffffffffffff8316611523576040517f08c379a0000000000000000000000000000000000000000000000000000000008152602060048201526024808201527f45524332303a20617070726f76652066726f6d20746865207a65726f2061646460448201527f7265737300000000000000000000000000000000000000000000000000000000606482015260840161038c565b73ffffffffffffffffffffffffffffffffffffffff82166115c6576040517f08c379a000000000000000000000000000000000000000000000000000000000815260206004820152602260248201527f45524332303a20617070726f766520746f20746865207a65726f20616464726560448201527f7373000000000000000000000000000000000000000000000000000000000000606482015260840161038c565b73ffffffffffffffffffffffffffffffffffffffff83811660008181526034602090815260408083209487168084529482529182902085905590518481527f8c5be1e5ebec7d5bd14f71427d1e84f3dd0314c0f7b2291e5b200ac8c7c3b925910160405180910390a3505050565b73ffffffffffffffffffffffffffffffffffffffff8381166000908152603460209081526040808320938616835292905220547fffffffffffffffffffffffffffffffffffffffffffffffffffffffffffffffff811461170557818110156116f8576040517f08c379a000000000000000000000000000000000000000000000000000000000815260206004820152601d60248201527f45524332303a20696e73756666696369656e7420616c6c6f77616e6365000000604482015260640161038c565b6117058484848403611481565b50505050565b73ffffffffffffffffffffffffffffffffffffffff83166117ae576040517f08c379a000000000000000000000000000000000000000000000000000000000815260206004820152602560248201527f45524332303a207472616e736665722066726f6d20746865207a65726f20616460448201527f6472657373000000000000000000000000000000000000000000000000000000606482015260840161038c565b73ffffffffffffffffffffffffffffffffffffffff8216611851576040517f08c379a000000000000000000000000000000000000000000000000000000000815260206004820152602360248201527f45524332303a207472616e7366657220746f20746865207a65726f206164647260448201527f6573730000000000000000000000000000000000000000000000000000000000606482015260840161038c565b73ffffffffffffffffffffffffffffffffffffffff831660009081526033602052604090205481811015611907576040517f08c379a000000000000000000000000000000000000000000000000000000000815260206004820152602660248201527f45524332303a207472616e7366657220616d6f756e742065786365656473206260448201527f616c616e63650000000000000000000000000000000000000000000000000000606482015260840161038c565b73ffffffffffffffffffffffffffffffffffffffff80851660008181526033602052604080822086860390559286168082529083902080548601905591517fddf252ad1be2c89b69c2b068fc378daa952ba7f163c4a11628f55a4df523b3ef906119749086815260200190565b60405180910390a3611705565b600054610100900460ff16611a18576040517f08c379a000000000000000000000000000000000000000000000000000000000815260206004820152602b60248201527f496e697469616c697a61626c653a20636f6e7472616374206973206e6f74206960448201527f6e697469616c697a696e67000000000000000000000000000000000000000000606482015260840161038c565b8151611a2b906036906020850190611b97565b5080516108f2906037906020840190611b97565b600054610100900460ff16611ad6576040517f08c379a000000000000000000000000000000000000000000000000000000000815260206004820152602b60248201527f496e697469616c697a61626c653a20636f6e7472616374206973206e6f74206960448201527f6e697469616c697a696e67000000000000000000000000000000000000000000606482015260840161038c565b606580547fffffffffffffffffffffffffffffffffffffffffffffffffffffffffffffff00169055565b600054610100900460ff16611053576040517f08c379a000000000000000000000000000000000000000000000000000000000815260206004820152602b60248201527f496e697469616c697a61626c653a20636f6e7472616374206973206e6f74206960448201527f6e697469616c697a696e67000000000000000000000000000000000000000000606482015260840161038c565b828054611ba390611ebe565b90600052602060002090601f016020900481019282611bc55760008555611c0b565b82601f10611bde57805160ff1916838001178555611c0b565b82800160010185558215611c0b579182015b82811115611c0b578251825591602001919060010190611bf0565b50611c17929150611c1b565b5090565b5b80821115611c175760008155600101611c1c565b600060208083528351808285015260005b81811015611c5d57858101830151858201604001528201611c41565b81811115611c6f576000604083870101525b50601f017fffffffffffffffffffffffffffffffffffffffffffffffffffffffffffffffe016929092016040019392505050565b803573ffffffffffffffffffffffffffffffffffffffff81168114611cc757600080fd5b919050565b60008060408385031215611cdf57600080fd5b611ce883611ca3565b946020939093013593505050565b600080600060608486031215611d0b57600080fd5b611d1484611ca3565b9250611d2260208501611ca3565b9150604084013590509250925092565b7f4e487b7100000000000000000000000000000000000000000000000000000000600052604160045260246000fd5b600082601f830112611d7257600080fd5b813567ffffffffffffffff80821115611d8d57611d8d611d32565b604051601f83017fffffffffffffffffffffffffffffffffffffffffffffffffffffffffffffffe0908116603f01168101908282118183101715611dd357611dd3611d32565b81604052838152866020858801011115611dec57600080fd5b836020870160208301376000602085830101528094505050505092915050565b60008060408385031215611e1f57600080fd5b823567ffffffffffffffff80821115611e3757600080fd5b611e4386838701611d61565b93506020850135915080821115611e5957600080fd5b50611e6685828601611d61565b9150509250929050565b600060208284031215611e8257600080fd5b61058a82611ca3565b60008060408385031215611e9e57600080fd5b611ea783611ca3565b9150611eb560208401611ca3565b90509250929050565b600181811c90821680611ed257607f821691505b60208210811415611f0c577f4e487b7100000000000000000000000000000000000000000000000000000000600052602260045260246000fd5b50919050565b60008219821115611f4c577f4e487b7100000000000000000000000000000000000000000000000000000000600052601160045260246000fd5b50019056fea264697066735822122080b71013faf3b341287fcb0a12f2cb53899b543c96c457f1b7419fc8afe59c8364736f6c634300080c0033",
  "immutableReferences": {},
  "source": "// SPDX-License-Identifier: MIT\npragma solidity ^0.8.0;\n\n// Import OpenZeppelin contracts\nimport \"@openzeppelin/contracts-upgradeable/token/ERC20/ERC20Upgradeable.sol\";\nimport \"@openzeppelin/contracts-upgradeable/proxy/utils/Initializable.sol\";\nimport \"@openzeppelin/contracts-upgradeable/security/PausableUpgradeable.sol\";\nimport \"@openzeppelin/contracts-upgradeable/security/ReentrancyGuardUpgradeable.sol\";\n\ncontract CashUSD is Initializable, ERC20Upgradeable, PausableUpgradeable, ReentrancyGuardUpgradeable {\n    string private _name;\n    string private _symbol;\n    uint8 private _decimals;\n    uint256 private _initSupply;\n\n    mapping(address => bool) private _blocked;\n\n    address private _owner;\n\n    modifier onlyOwner() {\n        require(msg.sender == _owner, \"Caller is not the owner\");\n        _;\n    }\n\n    function initialize(string memory name_, string memory symbol_) public initializer {\n        __ERC20_init(name_, symbol_);\n        __Pausable_init();\n        __ReentrancyGuard_init();\n\n        _name = name_;\n        _symbol = symbol_;\n        _decimals = 18;\n        _initSupply = 10_000_000_000 * 10 ** 18; // 1,000,000.00 Tokens\n        _mint(msg.sender, _initSupply);\n\n        _owner = msg.sender;\n    }\n\n    function transfer(address recipient, uint256 amount) public override(ERC20Upgradeable) whenNotPaused() nonReentrant() returns (bool) {\n        require(!_blocked[msg.sender], \"Sender account is blocked\");\n        require(!_blocked[recipient], \"Recipient account is blocked\");\n        return super.transfer(recipient, amount);\n    }\n\n    function transferFrom(address sender, address recipient, uint256 amount) public override(ERC20Upgradeable) whenNotPaused() nonReentrant() returns (bool) {\n        require(!_blocked[sender], \"Sender account is blocked\");\n        require(!_blocked[recipient], \"Recipient account is blocked\");\n        return super.transferFrom(sender, recipient, amount);\n    }\n\n    function approve(address spender, uint256 amount) public override(ERC20Upgradeable) whenNotPaused() nonReentrant() returns (bool) {\n    require(!_blocked[msg.sender], \"Sender account is blocked\");\n    require(!_blocked[spender], \"Spender account is blocked\");\n    return super.approve(spender, amount);\n}\n\nfunction increaseAllowance(address spender, uint256 addedValue) public override(ERC20Upgradeable) whenNotPaused() nonReentrant() returns (bool) {\n    require(!_blocked[msg.sender], \"Sender account is blocked\");\n    require(!_blocked[spender], \"Spender account is blocked\");\n    return super.increaseAllowance(spender, addedValue);\n}\n\nfunction decreaseAllowance(address spender, uint256 subtractedValue) public override(ERC20Upgradeable) whenNotPaused() nonReentrant() returns (bool) {\n    require(!_blocked[msg.sender], \"Sender account is blocked\");\n    require(!_blocked[spender], \"Spender account is blocked\");\n    return super.decreaseAllowance(spender, subtractedValue);\n}\n\nfunction blockAccount(address account) public onlyOwner {\n    require(account != address(0), \"Invalid address\");\n    require(!_blocked[account], \"Account is already blocked\");\n    _blocked[account] = true;\n    emit AccountBlocked(account);\n}\n\nfunction unblockAccount(address account) public onlyOwner {\n    require(account != address(0), \"Invalid address\");\n    require(_blocked[account], \"Account is not blocked\");\n    _blocked[account] = false;\n    emit AccountUnblocked(account);\n}\n\nevent AccountBlocked(address indexed account);\nevent AccountUnblocked(address indexed account);\n}",
  "sourcePath": "/home/eae966/ProductionWorkspace/Blockchain/Blockchain/NexilixLab/Contracts/contracts/CashUSD.sol",
  "compiler": {
    "name": "solc",
    "version": "0.8.12+commit.f00d7308.Emscripten.clang"
  },
  "schemaVersion": "3.4.13",
  "updatedAt": "2023-03-28T22:41:44.951Z",
  "networkType": "ethereum",
  "devdoc": {
    "kind": "dev",
    "methods": {
      "allowance(address,address)": {
        "details": "See {IERC20-allowance}."
      },
      "approve(address,uint256)": {
        "details": "See {IERC20-approve}. NOTE: If `amount` is the maximum `uint256`, the allowance is not updated on `transferFrom`. This is semantically equivalent to an infinite approval. Requirements: - `spender` cannot be the zero address."
      },
      "balanceOf(address)": {
        "details": "See {IERC20-balanceOf}."
      },
      "decimals()": {
        "details": "Returns the number of decimals used to get its user representation. For example, if `decimals` equals `2`, a balance of `505` tokens should be displayed to a user as `5.05` (`505 / 10 ** 2`). Tokens usually opt for a value of 18, imitating the relationship between Ether and Wei. This is the value {ERC20} uses, unless this function is overridden; NOTE: This information is only used for _display_ purposes: it in no way affects any of the arithmetic of the contract, including {IERC20-balanceOf} and {IERC20-transfer}."
      },
      "decreaseAllowance(address,uint256)": {
        "details": "Atomically decreases the allowance granted to `spender` by the caller. This is an alternative to {approve} that can be used as a mitigation for problems described in {IERC20-approve}. Emits an {Approval} event indicating the updated allowance. Requirements: - `spender` cannot be the zero address. - `spender` must have allowance for the caller of at least `subtractedValue`."
      },
      "increaseAllowance(address,uint256)": {
        "details": "Atomically increases the allowance granted to `spender` by the caller. This is an alternative to {approve} that can be used as a mitigation for problems described in {IERC20-approve}. Emits an {Approval} event indicating the updated allowance. Requirements: - `spender` cannot be the zero address."
      },
      "name()": {
        "details": "Returns the name of the token."
      },
      "paused()": {
        "details": "Returns true if the contract is paused, and false otherwise."
      },
      "symbol()": {
        "details": "Returns the symbol of the token, usually a shorter version of the name."
      },
      "totalSupply()": {
        "details": "See {IERC20-totalSupply}."
      }
    },
    "version": 1
  },
  "userdoc": {
    "kind": "user",
    "methods": {},
    "version": 1
  }
}