{
  "contractName": "Multicall3",
  "abi": [
    {
      "inputs": [
        {
          "components": [
            {
              "internalType": "address",
              "name": "target",
              "type": "address"
            },
            {
              "internalType": "bytes",
              "name": "callData",
              "type": "bytes"
            }
          ],
          "internalType": "struct Multicall3.Call[]",
          "name": "calls",
          "type": "tuple[]"
        }
      ],
      "name": "aggregate",
      "outputs": [
        {
          "internalType": "uint256",
          "name": "blockNumber",
          "type": "uint256"
        },
        {
          "internalType": "bytes[]",
          "name": "returnData",
          "type": "bytes[]"
        }
      ],
      "stateMutability": "payable",
      "type": "function",
      "payable": true
    },
    {
      "inputs": [
        {
          "internalType": "bool",
          "name": "requireSuccess",
          "type": "bool"
        },
        {
          "components": [
            {
              "internalType": "address",
              "name": "target",
              "type": "address"
            },
            {
              "internalType": "bytes",
              "name": "callData",
              "type": "bytes"
            }
          ],
          "internalType": "struct Multicall3.Call[]",
          "name": "calls",
          "type": "tuple[]"
        }
      ],
      "name": "tryAggregate",
      "outputs": [
        {
          "components": [
            {
              "internalType": "bool",
              "name": "success",
              "type": "bool"
            },
            {
              "internalType": "bytes",
              "name": "returnData",
              "type": "bytes"
            }
          ],
          "internalType": "struct Multicall3.Result[]",
          "name": "returnData",
          "type": "tuple[]"
        }
      ],
      "stateMutability": "payable",
      "type": "function",
      "payable": true
    },
    {
      "inputs": [
        {
          "internalType": "bool",
          "name": "requireSuccess",
          "type": "bool"
        },
        {
          "components": [
            {
              "internalType": "address",
              "name": "target",
              "type": "address"
            },
            {
              "internalType": "bytes",
              "name": "callData",
              "type": "bytes"
            }
          ],
          "internalType": "struct Multicall3.Call[]",
          "name": "calls",
          "type": "tuple[]"
        }
      ],
      "name": "tryBlockAndAggregate",
      "outputs": [
        {
          "internalType": "uint256",
          "name": "blockNumber",
          "type": "uint256"
        },
        {
          "internalType": "bytes32",
          "name": "blockHash",
          "type": "bytes32"
        },
        {
          "components": [
            {
              "internalType": "bool",
              "name": "success",
              "type": "bool"
            },
            {
              "internalType": "bytes",
              "name": "returnData",
              "type": "bytes"
            }
          ],
          "internalType": "struct Multicall3.Result[]",
          "name": "returnData",
          "type": "tuple[]"
        }
      ],
      "stateMutability": "payable",
      "type": "function",
      "payable": true
    },
    {
      "inputs": [
        {
          "components": [
            {
              "internalType": "address",
              "name": "target",
              "type": "address"
            },
            {
              "internalType": "bytes",
              "name": "callData",
              "type": "bytes"
            }
          ],
          "internalType": "struct Multicall3.Call[]",
          "name": "calls",
          "type": "tuple[]"
        }
      ],
      "name": "blockAndAggregate",
      "outputs": [
        {
          "internalType": "uint256",
          "name": "blockNumber",
          "type": "uint256"
        },
        {
          "internalType": "bytes32",
          "name": "blockHash",
          "type": "bytes32"
        },
        {
          "components": [
            {
              "internalType": "bool",
              "name": "success",
              "type": "bool"
            },
            {
              "internalType": "bytes",
              "name": "returnData",
              "type": "bytes"
            }
          ],
          "internalType": "struct Multicall3.Result[]",
          "name": "returnData",
          "type": "tuple[]"
        }
      ],
      "stateMutability": "payable",
      "type": "function",
      "payable": true
    },
    {
      "inputs": [
        {
          "components": [
            {
              "internalType": "address",
              "name": "target",
              "type": "address"
            },
            {
              "internalType": "bool",
              "name": "allowFailure",
              "type": "bool"
            },
            {
              "internalType": "bytes",
              "name": "callData",
              "type": "bytes"
            }
          ],
          "internalType": "struct Multicall3.Call3[]",
          "name": "calls",
          "type": "tuple[]"
        }
      ],
      "name": "aggregate3",
      "outputs": [
        {
          "components": [
            {
              "internalType": "bool",
              "name": "success",
              "type": "bool"
            },
            {
              "internalType": "bytes",
              "name": "returnData",
              "type": "bytes"
            }
          ],
          "internalType": "struct Multicall3.Result[]",
          "name": "returnData",
          "type": "tuple[]"
        }
      ],
      "stateMutability": "payable",
      "type": "function",
      "payable": true
    },
    {
      "inputs": [
        {
          "components": [
            {
              "internalType": "address",
              "name": "target",
              "type": "address"
            },
            {
              "internalType": "bool",
              "name": "allowFailure",
              "type": "bool"
            },
            {
              "internalType": "uint256",
              "name": "value",
              "type": "uint256"
            },
            {
              "internalType": "bytes",
              "name": "callData",
              "type": "bytes"
            }
          ],
          "internalType": "struct Multicall3.Call3Value[]",
          "name": "calls",
          "type": "tuple[]"
        }
      ],
      "name": "aggregate3Value",
      "outputs": [
        {
          "components": [
            {
              "internalType": "bool",
              "name": "success",
              "type": "bool"
            },
            {
              "internalType": "bytes",
              "name": "returnData",
              "type": "bytes"
            }
          ],
          "internalType": "struct Multicall3.Result[]",
          "name": "returnData",
          "type": "tuple[]"
        }
      ],
      "stateMutability": "payable",
      "type": "function",
      "payable": true
    },
    {
      "inputs": [
        {
          "internalType": "uint256",
          "name": "blockNumber",
          "type": "uint256"
        }
      ],
      "name": "getBlockHash",
      "outputs": [
        {
          "internalType": "bytes32",
          "name": "blockHash",
          "type": "bytes32"
        }
      ],
      "stateMutability": "view",
      "type": "function",
      "constant": true
    },
    {
      "inputs": [],
      "name": "getBlockNumber",
      "outputs": [
        {
          "internalType": "uint256",
          "name": "blockNumber",
          "type": "uint256"
        }
      ],
      "stateMutability": "view",
      "type": "function",
      "constant": true
    },
    {
      "inputs": [],
      "name": "getCurrentBlockCoinbase",
      "outputs": [
        {
          "internalType": "address",
          "name": "coinbase",
          "type": "address"
        }
      ],
      "stateMutability": "view",
      "type": "function",
      "constant": true
    },
    {
      "inputs": [],
      "name": "getCurrentBlockDifficulty",
      "outputs": [
        {
          "internalType": "uint256",
          "name": "difficulty",
          "type": "uint256"
        }
      ],
      "stateMutability": "view",
      "type": "function",
      "constant": true
    },
    {
      "inputs": [],
      "name": "getCurrentBlockGasLimit",
      "outputs": [
        {
          "internalType": "uint256",
          "name": "gaslimit",
          "type": "uint256"
        }
      ],
      "stateMutability": "view",
      "type": "function",
      "constant": true
    },
    {
      "inputs": [],
      "name": "getCurrentBlockTimestamp",
      "outputs": [
        {
          "internalType": "uint256",
          "name": "timestamp",
          "type": "uint256"
        }
      ],
      "stateMutability": "view",
      "type": "function",
      "constant": true
    },
    {
      "inputs": [
        {
          "internalType": "address",
          "name": "addr",
          "type": "address"
        }
      ],
      "name": "getEthBalance",
      "outputs": [
        {
          "internalType": "uint256",
          "name": "balance",
          "type": "uint256"
        }
      ],
      "stateMutability": "view",
      "type": "function",
      "constant": true
    },
    {
      "inputs": [],
      "name": "getLastBlockHash",
      "outputs": [
        {
          "internalType": "bytes32",
          "name": "blockHash",
          "type": "bytes32"
        }
      ],
      "stateMutability": "view",
      "type": "function",
      "constant": true
    },
    {
      "inputs": [],
      "name": "getBasefee",
      "outputs": [
        {
          "internalType": "uint256",
          "name": "basefee",
          "type": "uint256"
        }
      ],
      "stateMutability": "view",
      "type": "function",
      "constant": true
    },
    {
      "inputs": [],
      "name": "getChainId",
      "outputs": [
        {
          "internalType": "uint256",
          "name": "chainid",
          "type": "uint256"
        }
      ],
      "stateMutability": "view",
      "type": "function",
      "constant": true
    }
  ],
  "bytecode": "0x608060405234801561001057600080fd5b50610ee0806100206000396000f3fe6080604052600436106100f35760003560e01c80634d2301cc1161008a578063a8b0574e11610059578063a8b0574e1461025a578063bce38bd714610275578063c3077fa914610288578063ee82ac5e1461029b57600080fd5b80634d2301cc146101ec57806372425d9d1461022157806382ad56cb1461023457806386d516e81461024757600080fd5b80633408e470116100c65780633408e47014610191578063399542e9146101a45780633e64a696146101c657806342cbb15c146101d957600080fd5b80630f28c97d146100f8578063174dea711461011a578063252dba421461013a57806327e86d6e1461015b575b600080fd5b34801561010457600080fd5b50425b6040519081526020015b60405180910390f35b61012d610128366004610a85565b6102ba565b6040516101119190610bbe565b61014d610148366004610a85565b6104ef565b604051610111929190610bd8565b34801561016757600080fd5b50437fffffffffffffffffffffffffffffffffffffffffffffffffffffffffffffffff0140610107565b34801561019d57600080fd5b5046610107565b6101b76101b2366004610c60565b610690565b60405161011193929190610cba565b3480156101d257600080fd5b5048610107565b3480156101e557600080fd5b5043610107565b3480156101f857600080fd5b50610107610207366004610ce2565b73ffffffffffffffffffffffffffffffffffffffff163190565b34801561022d57600080fd5b5044610107565b61012d610242366004610a85565b6106ab565b34801561025357600080fd5b5045610107565b34801561026657600080fd5b50604051418152602001610111565b61012d610283366004610c60565b61085a565b6101b7610296366004610a85565b610a1a565b3480156102a757600080fd5b506101076102b6366004610d18565b4090565b60606000828067ffffffffffffffff8111156102d8576102d8610d31565b60405190808252806020026020018201604052801561031e57816020015b6040805180820190915260008152606060208201528152602001906001900390816102f65790505b5092503660005b8281101561047757600085828151811061034157610341610d60565b6020026020010151905087878381811061035d5761035d610d60565b905060200281019061036f9190610d8f565b6040810135958601959093506103886020850185610ce2565b73ffffffffffffffffffffffffffffffffffffffff16816103ac6060870187610dcd565b6040516103ba929190610e32565b60006040518083038185875af1925050503d80600081146103f7576040519150601f19603f3d011682016040523d82523d6000602084013e6103fc565b606091505b50602080850191909152901515808452908501351761046d577f08c379a000000000000000000000000000000000000000000000000000000000600052602060045260176024527f4d756c746963616c6c333a2063616c6c206661696c656400000000000000000060445260846000fd5b5050600101610325565b508234146104e6576040517f08c379a000000000000000000000000000000000000000000000000000000000815260206004820152601a60248201527f4d756c746963616c6c333a2076616c7565206d69736d6174636800000000000060448201526064015b60405180910390fd5b50505092915050565b436060828067ffffffffffffffff81111561050c5761050c610d31565b60405190808252806020026020018201604052801561053f57816020015b606081526020019060019003908161052a5790505b5091503660005b8281101561068657600087878381811061056257610562610d60565b90506020028101906105749190610e42565b92506105836020840184610ce2565b73ffffffffffffffffffffffffffffffffffffffff166105a66020850185610dcd565b6040516105b4929190610e32565b6000604051808303816000865af19150503d80600081146105f1576040519150601f19603f3d011682016040523d82523d6000602084013e6105f6565b606091505b5086848151811061060957610609610d60565b602090810291909101015290508061067d576040517f08c379a000000000000000000000000000000000000000000000000000000000815260206004820152601760248201527f4d756c746963616c6c333a2063616c6c206661696c656400000000000000000060448201526064016104dd565b50600101610546565b5050509250929050565b43804060606106a086868661085a565b905093509350939050565b6060818067ffffffffffffffff8111156106c7576106c7610d31565b60405190808252806020026020018201604052801561070d57816020015b6040805180820190915260008152606060208201528152602001906001900390816106e55790505b5091503660005b828110156104e657600084828151811061073057610730610d60565b6020026020010151905086868381811061074c5761074c610d60565b905060200281019061075e9190610e76565b925061076d6020840184610ce2565b73ffffffffffffffffffffffffffffffffffffffff166107906040850185610dcd565b60405161079e929190610e32565b6000604051808303816000865af19150503d80600081146107db576040519150601f19603f3d011682016040523d82523d6000602084013e6107e0565b606091505b506020808401919091529015158083529084013517610851577f08c379a000000000000000000000000000000000000000000000000000000000600052602060045260176024527f4d756c746963616c6c333a2063616c6c206661696c656400000000000000000060445260646000fd5b50600101610714565b6060818067ffffffffffffffff81111561087657610876610d31565b6040519080825280602002602001820160405280156108bc57816020015b6040805180820190915260008152606060208201528152602001906001900390816108945790505b5091503660005b82811015610a105760008482815181106108df576108df610d60565b602002602001015190508686838181106108fb576108fb610d60565b905060200281019061090d9190610e42565b925061091c6020840184610ce2565b73ffffffffffffffffffffffffffffffffffffffff1661093f6020850185610dcd565b60405161094d929190610e32565b6000604051808303816000865af19150503d806000811461098a576040519150601f19603f3d011682016040523d82523d6000602084013e61098f565b606091505b506020830152151581528715610a07578051610a07576040517f08c379a000000000000000000000000000000000000000000000000000000000815260206004820152601760248201527f4d756c746963616c6c333a2063616c6c206661696c656400000000000000000060448201526064016104dd565b506001016108c3565b5050509392505050565b6000806060610a2b60018686610690565b919790965090945092505050565b60008083601f840112610a4b57600080fd5b50813567ffffffffffffffff811115610a6357600080fd5b6020830191508360208260051b8501011115610a7e57600080fd5b9250929050565b60008060208385031215610a9857600080fd5b823567ffffffffffffffff811115610aaf57600080fd5b610abb85828601610a39565b90969095509350505050565b6000815180845260005b81811015610aed57602081850181015186830182015201610ad1565b81811115610aff576000602083870101525b50601f017fffffffffffffffffffffffffffffffffffffffffffffffffffffffffffffffe0169290920160200192915050565b600082825180855260208086019550808260051b84010181860160005b84811015610bb1578583037fffffffffffffffffffffffffffffffffffffffffffffffffffffffffffffffe001895281518051151584528401516040858501819052610b9d81860183610ac7565b9a86019a9450505090830190600101610b4f565b5090979650505050505050565b602081526000610bd16020830184610b32565b9392505050565b600060408201848352602060408185015281855180845260608601915060608160051b870101935082870160005b82811015610c52577fffffffffffffffffffffffffffffffffffffffffffffffffffffffffffffffa0888703018452610c40868351610ac7565b95509284019290840190600101610c06565b509398975050505050505050565b600080600060408486031215610c7557600080fd5b83358015158114610c8557600080fd5b9250602084013567ffffffffffffffff811115610ca157600080fd5b610cad86828701610a39565b9497909650939450505050565b838152826020820152606060408201526000610cd96060830184610b32565b95945050505050565b600060208284031215610cf457600080fd5b813573ffffffffffffffffffffffffffffffffffffffff81168114610bd157600080fd5b600060208284031215610d2a57600080fd5b5035919050565b7f4e487b7100000000000000000000000000000000000000000000000000000000600052604160045260246000fd5b7f4e487b7100000000000000000000000000000000000000000000000000000000600052603260045260246000fd5b600082357fffffffffffffffffffffffffffffffffffffffffffffffffffffffffffffff81833603018112610dc357600080fd5b9190910192915050565b60008083357fffffffffffffffffffffffffffffffffffffffffffffffffffffffffffffffe1843603018112610e0257600080fd5b83018035915067ffffffffffffffff821115610e1d57600080fd5b602001915036819003821315610a7e57600080fd5b8183823760009101908152919050565b600082357fffffffffffffffffffffffffffffffffffffffffffffffffffffffffffffffc1833603018112610dc357600080fd5b600082357fffffffffffffffffffffffffffffffffffffffffffffffffffffffffffffffa1833603018112610dc357600080fdfea2646970667358221220bc536edd11dd93c27658b603943f3f3155ea6060a92a826dbea852b5669461b964736f6c634300080c0033",
  "immutableReferences": {},
  "source": "\n// SPDX-License-Identifier: MIT\npragma solidity 0.8.12;\n\n/// @title Multicall3\n/// @notice Aggregate results from multiple function calls\n/// @dev Multicall & Multicall2 backwards-compatible\n/// @dev Aggregate methods are marked `payable` to save 24 gas per call\n/// @author Michael Elliot <mike@makerdao.com>\n/// @author Joshua Levine <joshua@makerdao.com>\n/// @author Nick Johnson <arachnid@notdot.net>\n/// @author Andreas Bigger <andreas@nascent.xyz>\n/// @author Matt Solomon <matt@mattsolomon.dev>\ncontract Multicall3 {\n    struct Call {\n        address target;\n        bytes callData;\n    }\n\n    struct Call3 {\n        address target;\n        bool allowFailure;\n        bytes callData;\n    }\n\n    struct Call3Value {\n        address target;\n        bool allowFailure;\n        uint256 value;\n        bytes callData;\n    }\n\n    struct Result {\n        bool success;\n        bytes returnData;\n    }\n\n    /// @notice Backwards-compatible call aggregation with Multicall\n    /// @param calls An array of Call structs\n    /// @return blockNumber The block number where the calls were executed\n    /// @return returnData An array of bytes containing the responses\n    function aggregate(Call[] calldata calls) public payable returns (uint256 blockNumber, bytes[] memory returnData) {\n        blockNumber = block.number;\n        uint256 length = calls.length;\n        returnData = new bytes[](length);\n        Call calldata call;\n        for (uint256 i = 0; i < length;) {\n            bool success;\n            call = calls[i];\n            (success, returnData[i]) = call.target.call(call.callData);\n            require(success, \"Multicall3: call failed\");\n            unchecked { ++i; }\n        }\n    }\n\n    /// @notice Backwards-compatible with Multicall2\n    /// @notice Aggregate calls without requiring success\n    /// @param requireSuccess If true, require all calls to succeed\n    /// @param calls An array of Call structs\n    /// @return returnData An array of Result structs\n    function tryAggregate(bool requireSuccess, Call[] calldata calls) public payable returns (Result[] memory returnData) {\n        uint256 length = calls.length;\n        returnData = new Result[](length);\n        Call calldata call;\n        for (uint256 i = 0; i < length;) {\n            Result memory result = returnData[i];\n            call = calls[i];\n            (result.success, result.returnData) = call.target.call(call.callData);\n            if (requireSuccess) require(result.success, \"Multicall3: call failed\");\n            unchecked { ++i; }\n        }\n    }\n\n    /// @notice Backwards-compatible with Multicall2\n    /// @notice Aggregate calls and allow failures using tryAggregate\n    /// @param calls An array of Call structs\n    /// @return blockNumber The block number where the calls were executed\n    /// @return blockHash The hash of the block where the calls were executed\n    /// @return returnData An array of Result structs\n    function tryBlockAndAggregate(bool requireSuccess, Call[] calldata calls) public payable returns (uint256 blockNumber, bytes32 blockHash, Result[] memory returnData) {\n        blockNumber = block.number;\n        blockHash = blockhash(block.number);\n        returnData = tryAggregate(requireSuccess, calls);\n    }\n\n    /// @notice Backwards-compatible with Multicall2\n    /// @notice Aggregate calls and allow failures using tryAggregate\n    /// @param calls An array of Call structs\n    /// @return blockNumber The block number where the calls were executed\n    /// @return blockHash The hash of the block where the calls were executed\n    /// @return returnData An array of Result structs\n    function blockAndAggregate(Call[] calldata calls) public payable returns (uint256 blockNumber, bytes32 blockHash, Result[] memory returnData) {\n        (blockNumber, blockHash, returnData) = tryBlockAndAggregate(true, calls);\n    }\n\n    /// @notice Aggregate calls, ensuring each returns success if required\n    /// @param calls An array of Call3 structs\n    /// @return returnData An array of Result structs\n    function aggregate3(Call3[] calldata calls) public payable returns (Result[] memory returnData) {\n        uint256 length = calls.length;\n        returnData = new Result[](length);\n        Call3 calldata calli;\n        for (uint256 i = 0; i < length;) {\n            Result memory result = returnData[i];\n            calli = calls[i];\n            (result.success, result.returnData) = calli.target.call(calli.callData);\n            assembly {\n                // Revert if the call fails and failure is not allowed\n                // `allowFailure := calldataload(add(calli, 0x20))` and `success := mload(result)`\n                if iszero(or(calldataload(add(calli, 0x20)), mload(result))) {\n                    // set \"Error(string)\" signature: bytes32(bytes4(keccak256(\"Error(string)\")))\n                    mstore(0x00, 0x08c379a000000000000000000000000000000000000000000000000000000000)\n                    // set data offset\n                    mstore(0x04, 0x0000000000000000000000000000000000000000000000000000000000000020)\n                    // set length of revert string\n                    mstore(0x24, 0x0000000000000000000000000000000000000000000000000000000000000017)\n                    // set revert string: bytes32(abi.encodePacked(\"Multicall3: call failed\"))\n                    mstore(0x44, 0x4d756c746963616c6c333a2063616c6c206661696c6564000000000000000000)\n                    revert(0x00, 0x64)\n                }\n            }\n            unchecked { ++i; }\n        }\n    }\n\n    /// @notice Aggregate calls with a msg value\n    /// @notice Reverts if msg.value is less than the sum of the call values\n    /// @param calls An array of Call3Value structs\n    /// @return returnData An array of Result structs\n    function aggregate3Value(Call3Value[] calldata calls) public payable returns (Result[] memory returnData) {\n        uint256 valAccumulator;\n        uint256 length = calls.length;\n        returnData = new Result[](length);\n        Call3Value calldata calli;\n        for (uint256 i = 0; i < length;) {\n            Result memory result = returnData[i];\n            calli = calls[i];\n            uint256 val = calli.value;\n            // Humanity will be a Type V Kardashev Civilization before this overflows - andreas\n            // ~ 10^25 Wei in existence << ~ 10^76 size uint fits in a uint256\n            unchecked { valAccumulator += val; }\n            (result.success, result.returnData) = calli.target.call{value: val}(calli.callData);\n            assembly {\n                // Revert if the call fails and failure is not allowed\n                // `allowFailure := calldataload(add(calli, 0x20))` and `success := mload(result)`\n                if iszero(or(calldataload(add(calli, 0x20)), mload(result))) {\n                    // set \"Error(string)\" signature: bytes32(bytes4(keccak256(\"Error(string)\")))\n                    mstore(0x00, 0x08c379a000000000000000000000000000000000000000000000000000000000)\n                    // set data offset\n                    mstore(0x04, 0x0000000000000000000000000000000000000000000000000000000000000020)\n                    // set length of revert string\n                    mstore(0x24, 0x0000000000000000000000000000000000000000000000000000000000000017)\n                    // set revert string: bytes32(abi.encodePacked(\"Multicall3: call failed\"))\n                    mstore(0x44, 0x4d756c746963616c6c333a2063616c6c206661696c6564000000000000000000)\n                    revert(0x00, 0x84)\n                }\n            }\n            unchecked { ++i; }\n        }\n        // Finally, make sure the msg.value = SUM(call[0...i].value)\n        require(msg.value == valAccumulator, \"Multicall3: value mismatch\");\n    }\n\n    /// @notice Returns the block hash for the given block number\n    /// @param blockNumber The block number\n    function getBlockHash(uint256 blockNumber) public view returns (bytes32 blockHash) {\n        blockHash = blockhash(blockNumber);\n    }\n\n    /// @notice Returns the block number\n    function getBlockNumber() public view returns (uint256 blockNumber) {\n        blockNumber = block.number;\n    }\n\n    /// @notice Returns the block coinbase\n    function getCurrentBlockCoinbase() public view returns (address coinbase) {\n        coinbase = block.coinbase;\n    }\n\n    /// @notice Returns the block difficulty\n    function getCurrentBlockDifficulty() public view returns (uint256 difficulty) {\n        difficulty = block.difficulty;\n    }\n\n    /// @notice Returns the block gas limit\n    function getCurrentBlockGasLimit() public view returns (uint256 gaslimit) {\n        gaslimit = block.gaslimit;\n    }\n\n    /// @notice Returns the block timestamp\n    function getCurrentBlockTimestamp() public view returns (uint256 timestamp) {\n        timestamp = block.timestamp;\n    }\n\n    /// @notice Returns the (ETH) balance of a given address\n    function getEthBalance(address addr) public view returns (uint256 balance) {\n        balance = addr.balance;\n    }\n\n    /// @notice Returns the block hash of the last block\n    function getLastBlockHash() public view returns (bytes32 blockHash) {\n        unchecked {\n            blockHash = blockhash(block.number - 1);\n        }\n    }\n\n    /// @notice Gets the base fee of the given block\n    /// @notice Can revert if the BASEFEE opcode is not implemented by the given chain\n    function getBasefee() public view returns (uint256 basefee) {\n        basefee = block.basefee;\n    }\n\n    /// @notice Returns the chain id\n    function getChainId() public view returns (uint256 chainid) {\n        chainid = block.chainid;\n    }\n}",
  "sourcePath": "/home/eae966/ProductionWorkspace/Blockchain/Blockchain/NexilixLab/Contracts/contracts/Multicall3.sol",
  "compiler": {
    "name": "solc",
    "version": "0.8.12+commit.f00d7308.Emscripten.clang"
  },
  "schemaVersion": "3.4.13",
  "updatedAt": "2023-03-27T15:04:59.411Z",
  "networkType": "ethereum",
  "devdoc": {
    "author": "Michael Elliot <mike@makerdao.com>Joshua Levine <joshua@makerdao.com>Nick Johnson <arachnid@notdot.net>Andreas Bigger <andreas@nascent.xyz>Matt Solomon <matt@mattsolomon.dev>",
    "details": "Multicall & Multicall2 backwards-compatibleAggregate methods are marked `payable` to save 24 gas per call",
    "kind": "dev",
    "methods": {
      "aggregate((address,bytes)[])": {
        "params": {
          "calls": "An array of Call structs"
        },
        "returns": {
          "blockNumber": "The block number where the calls were executed",
          "returnData": "An array of bytes containing the responses"
        }
      },
      "aggregate3((address,bool,bytes)[])": {
        "params": {
          "calls": "An array of Call3 structs"
        },
        "returns": {
          "returnData": "An array of Result structs"
        }
      },
      "aggregate3Value((address,bool,uint256,bytes)[])": {
        "params": {
          "calls": "An array of Call3Value structs"
        },
        "returns": {
          "returnData": "An array of Result structs"
        }
      },
      "blockAndAggregate((address,bytes)[])": {
        "params": {
          "calls": "An array of Call structs"
        },
        "returns": {
          "blockHash": "The hash of the block where the calls were executed",
          "blockNumber": "The block number where the calls were executed",
          "returnData": "An array of Result structs"
        }
      },
      "getBlockHash(uint256)": {
        "params": {
          "blockNumber": "The block number"
        }
      },
      "tryAggregate(bool,(address,bytes)[])": {
        "params": {
          "calls": "An array of Call structs",
          "requireSuccess": "If true, require all calls to succeed"
        },
        "returns": {
          "returnData": "An array of Result structs"
        }
      },
      "tryBlockAndAggregate(bool,(address,bytes)[])": {
        "params": {
          "calls": "An array of Call structs"
        },
        "returns": {
          "blockHash": "The hash of the block where the calls were executed",
          "blockNumber": "The block number where the calls were executed",
          "returnData": "An array of Result structs"
        }
      }
    },
    "title": "Multicall3",
    "version": 1
  },
  "userdoc": {
    "kind": "user",
    "methods": {
      "aggregate((address,bytes)[])": {
        "notice": "Backwards-compatible call aggregation with Multicall"
      },
      "aggregate3((address,bool,bytes)[])": {
        "notice": "Aggregate calls, ensuring each returns success if required"
      },
      "aggregate3Value((address,bool,uint256,bytes)[])": {
        "notice": "Aggregate calls with a msg valueReverts if msg.value is less than the sum of the call values"
      },
      "blockAndAggregate((address,bytes)[])": {
        "notice": "Backwards-compatible with Multicall2Aggregate calls and allow failures using tryAggregate"
      },
      "getBasefee()": {
        "notice": "Gets the base fee of the given blockCan revert if the BASEFEE opcode is not implemented by the given chain"
      },
      "getBlockHash(uint256)": {
        "notice": "Returns the block hash for the given block number"
      },
      "getBlockNumber()": {
        "notice": "Returns the block number"
      },
      "getChainId()": {
        "notice": "Returns the chain id"
      },
      "getCurrentBlockCoinbase()": {
        "notice": "Returns the block coinbase"
      },
      "getCurrentBlockDifficulty()": {
        "notice": "Returns the block difficulty"
      },
      "getCurrentBlockGasLimit()": {
        "notice": "Returns the block gas limit"
      },
      "getCurrentBlockTimestamp()": {
        "notice": "Returns the block timestamp"
      },
      "getEthBalance(address)": {
        "notice": "Returns the (ETH) balance of a given address"
      },
      "getLastBlockHash()": {
        "notice": "Returns the block hash of the last block"
      },
      "tryAggregate(bool,(address,bytes)[])": {
        "notice": "Backwards-compatible with Multicall2Aggregate calls without requiring success"
      },
      "tryBlockAndAggregate(bool,(address,bytes)[])": {
        "notice": "Backwards-compatible with Multicall2Aggregate calls and allow failures using tryAggregate"
      }
    },
    "notice": "Aggregate results from multiple function calls",
    "version": 1
  }
}